:100000000C9463000C948B000C948B000C948B006C
:100010000C948B000C948B000C948B000C948B0034
:100020000C948B000C948B000C948B000C948B0024
:100030000C948B000C948B000C948B000C948B0014
:100040000C9422010C948B000C94EE020C943C0353
:100050000C948B000C948B000C948B000C948B00F4
:100060000C948B000C948B000000000024002700EF
:100070002A0000000000250028002B0000000000DE
:1000800023002600290004040404040404040202DA
:100090000202020203030303030301020408102007
:1000A0004080010204081020010204081020000012
:1000B0000007000201000003040600000000000029
:1000C00000008D00A80411241FBECFEFD8E0DEBFD2
:1000D000CDBF11E0A0E0B1E0E0E3FBE002C005909D
:1000E0000D92AE31B107D9F712E0AEE1B1E001C037
:1000F0001D92A738B107E1F710E0C6ECD0E004C0CC
:100100002297FE010E949205C23CD107C9F70E94C6
:10011000DE020C9496050C9400008EE191E00E94A2
:100120000901089585E692E040E855E260E070E05C
:100130000E94770308958091CA0161E00E944B02FA
:100140008091CA0160E00E948A0282E090E00E94F1
:100150006A018091CA0161E00E948A0285E090E014
:100160000E946A018091CA0160E00E948A02809127
:10017000CA0160E00E944B028091CA0161E020E167
:1001800037E240E050E00E94AF017093D3016093EA
:10019000D2010895E091C801F091C901EE0FFF1F4F
:1001A000E95FFE4F808191819093CB018093CA01DA
:1001B0000E949B008091C8019091C901FC01EE0F43
:1001C000FF1F3091D2012091D301E453FE4F2083D1
:1001D000318301969093C9018093C801E091650233
:1001E000F09166020280F381E02D85E692E060E006
:1001F00071E046E050E009958091C8019091C901F5
:1002000063E070E00E9447059093C9018093C801A4
:1002100008950F931F93CF93DF93EC0100E010E05C
:10022000CE01800F911F0E941F010F5E1F4F0A3ADF
:100230001105B1F7DF91CF911F910F910895FC0146
:10024000108208951F920F920FB60F9211242F93D0
:100250003F938F939F93AF93BF938091D8019091D9
:10026000D901A091DA01B091DB013091DC01019656
:10027000A11DB11D232F2D5F2D3720F02D57019685
:10028000A11DB11D2093DC018093D8019093D90169
:10029000A093DA01B093DB018091D4019091D50154
:1002A000A091D601B091D7010196A11DB11D8093F7
:1002B000D4019093D501A093D601B093D701BF91FB
:1002C000AF919F918F913F912F910F900FBE0F9003
:1002D0001F901895019739F0880F991F880F991F63
:1002E00002970197F1F70895789484B5826084BDF0
:1002F00084B5816084BD85B5826085BD85B581602A
:1003000085BDEEE6F0E0808181608083E1E8F0E089
:100310001082808182608083808181608083E0E8B8
:10032000F0E0808181608083E1EBF0E08081846097
:100330008083E0EBF0E0808181608083EAE7F0E099
:1003400080818460808380818260808380818160FD
:1003500080838081806880831092C10008958F928D
:100360009F92AF92BF92CF92DF92EF92FF920F9344
:100370001F93CF93DF93A82FB0E0CD0186569F4FF8
:10038000FC018490AA57BF4FFD018491662311F4AC
:10039000992401C0982C6FEFA62E6FEFB62E6FEF49
:1003A000C62E6FE0D62EA222B322C422D522682FF9
:1003B00070E0660F771F64587F4FEE24FF2487019B
:1003C000FB01A591B4910BC0EA14FB040C051D05BB
:1003D00009F44EC00894E11CF11C011D111D8C9103
:1003E0008821891589F30CC0EA14FB040C051D054E
:1003F00009F43EC00894E11CF11C011D111D03C04D
:10040000FB01A591B4918C918821891569F720E0B1
:1004100030E040E050E0FB01C591D4910FC0DA011B
:10042000C9018E0D9F1DA01FB11F8A159B05AC052C
:10043000BD05F1F02F5F3F4F4F4F5F4F88818821FF
:10044000891569F3CA01B90125E130E040E050E0C7
:100450000E9428059B01AC01205F3F4F4F4F5F4F2B
:1004600084E056954795379527958A95D1F704C02E
:1004700020E030E040E050E0B901CA01DF91CF91C7
:100480001F910F91FF90EF90DF90CF90BF90AF90B2
:100490009F908F900895CF93DF93482F50E0CA012B
:1004A00086569F4FFC0134914A575F4FFA01849161
:1004B000882369F190E0880F991FFC01E859FF4FEC
:1004C000A591B491FC01EE58FF4FC591D4916623DC
:1004D00051F42FB7F8948C91932F909589238C9396
:1004E000888189230BC0623061F42FB7F8948C9116
:1004F000932F909589238C938881832B88832FBF9A
:1005000006C09FB7F8948C91832B8C939FBFDF918B
:10051000CF910895482F50E0CA0182559F4FFC01AA
:100520002491CA0186569F4FFC0194914A575F4F10
:10053000FA013491332309F440C0222351F12330CE
:1005400071F0243028F42130A1F0223011F514C0CC
:100550002630B1F02730C1F02430D9F404C08091A6
:1005600080008F7703C0809180008F7D8093800012
:1005700010C084B58F7702C084B58F7D84BD09C05B
:100580008091B0008F7703C08091B0008F7D809301
:10059000B000E32FF0E0EE0FFF1FEE58FF4FA591E4
:1005A000B4912FB7F894662321F48C919095892308
:1005B00002C08C91892B8C932FBF0895CF93DF932A
:1005C0000E9474010E949200C9E2D3E00E94CA0016
:1005D0002097E1F30E942903F9CF08951F920F920B
:1005E0000FB60F9211242F933F934F938F939F93A6
:1005F000EF93FF938091C00082FD1DC04091C60023
:1006000020911D0230911E022F5F3F4F2F733070DB
:1006100080911F02909120022817390771F0E09114
:100620001D02F0911E02E352FE4F408330931E02E2
:1006300020931D0202C08091C600FF91EF919F910F
:100640008F914F913F912F910F900FBE0F901F9060
:100650001895E0917102F0917202E05CFF4F819178
:10066000919120813181821B930B8F739070892B24
:1006700011F00E94ED0208951F920F920FB60F9293
:1006800011242F933F938F939F93EF93FF93209188
:100690006102309162028091630290916402281796
:1006A000390731F48091C1008F7D8093C10014C05F
:1006B000E0916302F0916402EF5DFD4F2081809133
:1006C00063029091640201968F739070909364021C
:1006D000809363022093C600FF91EF919F918F91C9
:1006E0003F912F910F900FBE0F901F901895AF92D2
:1006F000BF92DF92EF92FF920F931F93CF93DF93FE
:10070000EC017A018B01DD24403081EE580780E056
:10071000680780E0780711F0DD24D39491E0A92EDA
:10072000B12CEC89FD89DD2069F0C50108A002C06B
:10073000880F991F0A94E2F7808360E079E08DE3E7
:1007400090E005C0108260E874E88EE190E0A801B6
:1007500097010E945A052150304040405040569524
:1007600047953795279580E12030380720F0DD2028
:1007700011F0DD24D6CFE889F9893083EA89FB8935
:10078000208319A2EE89FF89408121E030E0C90170
:100790000C8C02C0880F991F0A94E2F7482B408303
:1007A000EE89FF894081C9010D8C02C0880F991F15
:1007B0000A94E2F7482B4083EE89FF894081C90102
:1007C0000E8C02C0880F991F0A94E2F7482B4083D1
:1007D000EE89FF8980810F8C02C0220F331F0A949B
:1007E000E2F7209528232083DF91CF911F910F916D
:1007F000FF90EF90DF90BF90AF900895DC011C96C2
:10080000ED91FC911D97E05CFF4F2191319180812A
:100810009181281B390B2F733070C9010895DC01B9
:100820001C96ED91FC911D97E05CFF4F208131817A
:10083000E054F040DF01AE5BBF4F8D919C9111976A
:100840002817390719F42FEF3FEF07C08D919C91BE
:10085000E80FF91F8081282F30E0C9010895DC01DD
:100860001C96ED91FC911D97E05CFF4F208131813A
:10087000E054F040DF01AE5BBF4F8D919C9111972A
:100880002817390719F42FEF3FEF10C08D919C9175
:100890001197E80FF91F20818D919C911197019676
:1008A0008F73907011969C938E9330E0C9010895D8
:1008B000DC0191968C919197882339F05496ED91B3
:1008C000FC915597808186FFF9CF91961C920895EF
:1008D000CF93DF93EC01EE85FF85E05CFF4F208135
:1008E0003181E054F0402F5F3F4F2F733070DF01B4
:1008F000AE5BBF4F8D919C91119728173907D1F3AB
:10090000E05CFF4F80819181E054F040E80FF91FD7
:100910006083EE85FF85E05CFF4F31832083EE89A5
:10092000FF89208181E090E00F8C02C0880F991F21
:100930000A94E2F7282B208381E089A3EC89FD89C2
:1009400080818064808381E090E0DF91CF91089581
:10095000109268021092670288EE93E0A0E0B0E087
:100960008093690290936A02A0936B02B0936C0229
:1009700081E191E090936602809365028DED91E0B4
:10098000909372028093710281E292E090937402DC
:100990008093730285EC90E09093760280937502C9
:1009A00084EC90E0909378028093770280EC90E062
:1009B00090937A028093790281EC90E090937C028C
:1009C00080937B0282EC90E090937E0280937D0284
:1009D00086EC90E09093800280937F0284E0809385
:1009E000810283E08093820287E08093830285E026
:1009F0008093840281E0809385020895CF92DF92F4
:100A0000EF92FF920F931F93CF93DF937C016B01C3
:100A10008A01C0E0D0E00FC0D6016D916D01D70111
:100A2000ED91FC910190F081E02DC7010995C80F6F
:100A3000D91F015010400115110571F7CE01DF914A
:100A4000CF911F910F91FF90EF90DF90CF9008957D
:100A5000629FD001739FF001829FE00DF11D649FA2
:100A6000E00DF11D929FF00D839FF00D749FF00D2E
:100A7000659FF00D9927729FB00DE11DF91F639FCF
:100A8000B00DE11DF91FBD01CF011124089597FBA1
:100A9000092E07260AD077FD04D02ED006D00020DC
:100AA0001AF4709561957F4F0895F6F790958195AA
:100AB0009F4F0895A1E21A2EAA1BBB1BFD010DC07A
:100AC000AA1FBB1FEE1FFF1FA217B307E407F507FE
:100AD00020F0A21BB30BE40BF50B661F771F881FDA
:100AE000991F1A9469F760957095809590959B0170
:100AF000AC01BD01CF010895AA1BBB1B51E107C08A
:100B0000AA1FBB1FA617B70710F0A61BB70B881F9D
:100B1000991F5A95A9F780959095BC01CD0108952C
:100B2000EE0FFF1F0590F491E02D0994F894FFCF8C
:100B300068656C6C6F0A0003000500070000000088
:0E0B4000006804FE04FE032F040F0458040096
:00000001FF
